{
  "contractName": "TicTacToe",
  "abi": [
    {
      "inputs": [],
      "payable": true,
      "stateMutability": "payable",
      "type": "constructor"
    },
    {
      "anonymous": false,
      "inputs": [],
      "name": "GameOverWithDraw",
      "type": "event"
    },
    {
      "anonymous": false,
      "inputs": [
        {
          "indexed": false,
          "internalType": "address",
          "name": "winner",
          "type": "address"
        }
      ],
      "name": "GameOverWithWin",
      "type": "event"
    },
    {
      "anonymous": false,
      "inputs": [
        {
          "indexed": false,
          "internalType": "address",
          "name": "player",
          "type": "address"
        }
      ],
      "name": "NextPlayer",
      "type": "event"
    },
    {
      "anonymous": false,
      "inputs": [
        {
          "indexed": false,
          "internalType": "address",
          "name": "receiver",
          "type": "address"
        },
        {
          "indexed": false,
          "internalType": "uint256",
          "name": "amountInWei",
          "type": "uint256"
        }
      ],
      "name": "PayoutSuccess",
      "type": "event"
    },
    {
      "anonymous": false,
      "inputs": [
        {
          "indexed": false,
          "internalType": "address",
          "name": "player",
          "type": "address"
        }
      ],
      "name": "PlayerJoined",
      "type": "event"
    },
    {
      "constant": true,
      "inputs": [],
      "name": "boardSize",
      "outputs": [
        {
          "internalType": "uint8",
          "name": "",
          "type": "uint8"
        }
      ],
      "payable": false,
      "stateMutability": "view",
      "type": "function"
    },
    {
      "constant": true,
      "inputs": [],
      "name": "gameCost",
      "outputs": [
        {
          "internalType": "uint256",
          "name": "",
          "type": "uint256"
        }
      ],
      "payable": false,
      "stateMutability": "view",
      "type": "function"
    },
    {
      "constant": true,
      "inputs": [],
      "name": "player1",
      "outputs": [
        {
          "internalType": "address payable",
          "name": "",
          "type": "address"
        }
      ],
      "payable": false,
      "stateMutability": "view",
      "type": "function"
    },
    {
      "constant": true,
      "inputs": [],
      "name": "player2",
      "outputs": [
        {
          "internalType": "address payable",
          "name": "",
          "type": "address"
        }
      ],
      "payable": false,
      "stateMutability": "view",
      "type": "function"
    },
    {
      "constant": false,
      "inputs": [],
      "name": "joinGame",
      "outputs": [],
      "payable": true,
      "stateMutability": "payable",
      "type": "function"
    },
    {
      "constant": true,
      "inputs": [],
      "name": "getBoard",
      "outputs": [
        {
          "internalType": "address[3][3]",
          "name": "",
          "type": "address[3][3]"
        }
      ],
      "payable": false,
      "stateMutability": "view",
      "type": "function"
    },
    {
      "constant": false,
      "inputs": [],
      "name": "withDrawWin",
      "outputs": [],
      "payable": false,
      "stateMutability": "nonpayable",
      "type": "function"
    },
    {
      "constant": false,
      "inputs": [],
      "name": "emergecyCashout",
      "outputs": [],
      "payable": false,
      "stateMutability": "nonpayable",
      "type": "function"
    },
    {
      "constant": false,
      "inputs": [
        {
          "internalType": "uint8",
          "name": "x",
          "type": "uint8"
        },
        {
          "internalType": "uint8",
          "name": "y",
          "type": "uint8"
        }
      ],
      "name": "setStone",
      "outputs": [],
      "payable": true,
      "stateMutability": "payable",
      "type": "function"
    }
  ],
  "bytecode": "0x608060405260036000806101000a81548160ff021916908360ff16021790555060b4600e5533600a60006101000a81548173ffffffffffffffffffffffffffffffffffffffff021916908373ffffffffffffffffffffffffffffffffffffffff16021790555067016345785d8a0000341461007957600080fd5b600e544201600f819055506115a5806100936000396000f3fe6080604052600436106100865760003560e01c8063c51d69f411610059578063c51d69f4146101ad578063cab896dc146101de578063d30895e414610209578063d4f77b1c14610260578063ea40a2a21461026a57610086565b80633264a34b1461008b57806359a5f12d1461010157806365bc9d11146101585780637d3f90741461016f575b600080fd5b34801561009757600080fd5b506100a0610281565b604051808260036000925b818410156100f15782846020020151600360200280838360005b838110156100e05780820151818401526020810190506100c5565b5050505090500192600101926100ab565b9250505091505060405180910390f35b34801561010d57600080fd5b5061011661033a565b604051808273ffffffffffffffffffffffffffffffffffffffff1673ffffffffffffffffffffffffffffffffffffffff16815260200191505060405180910390f35b34801561016457600080fd5b5061016d610360565b005b6101ab6004803603604081101561018557600080fd5b81019080803560ff169060200190929190803560ff1690602001909291905050506105e0565b005b3480156101b957600080fd5b506101c2610e73565b604051808260ff1660ff16815260200191505060405180910390f35b3480156101ea57600080fd5b506101f3610e85565b6040518082815260200191505060405180910390f35b34801561021557600080fd5b5061021e610e91565b604051808273ffffffffffffffffffffffffffffffffffffffff1673ffffffffffffffffffffffffffffffffffffffff16815260200191505060405180910390f35b610268610eb7565b005b34801561027657600080fd5b5061027f6110f9565b005b610289611521565b6001600380602002604051908101604052809291906000905b828210156103315783826003020160038060200260405190810160405280929190826003801561031d576020028201915b8160009054906101000a900473ffffffffffffffffffffffffffffffffffffffff1673ffffffffffffffffffffffffffffffffffffffff16815260200190600101908083116102d3575b5050505050815260200190600101906102a2565b50505050905090565b600b60009054906101000a900473ffffffffffffffffffffffffffffffffffffffff1681565b600a60009054906101000a900473ffffffffffffffffffffffffffffffffffffffff1673ffffffffffffffffffffffffffffffffffffffff163373ffffffffffffffffffffffffffffffffffffffff1614156104cc576000600c54116103c557600080fd5b6000600c81905550600a60009054906101000a900473ffffffffffffffffffffffffffffffffffffffff1673ffffffffffffffffffffffffffffffffffffffff166108fc600c549081150290604051600060405180830381858888f19350505050158015610437573d6000803e3d6000fd5b507f2a44162a2d5223e37cacacc3f626dcfee1396e0be3616534c5c7b718f786b673600a60009054906101000a900473ffffffffffffffffffffffffffffffffffffffff16600c54604051808373ffffffffffffffffffffffffffffffffffffffff1673ffffffffffffffffffffffffffffffffffffffff1681526020018281526020019250505060405180910390a16105de565b6000600d54116104db57600080fd5b6000600d81905550600b60009054906101000a900473ffffffffffffffffffffffffffffffffffffffff1673ffffffffffffffffffffffffffffffffffffffff166108fc600d549081150290604051600060405180830381858888f1935050505015801561054d573d6000803e3d6000fd5b507f2a44162a2d5223e37cacacc3f626dcfee1396e0be3616534c5c7b718f786b673600b60009054906101000a900473ffffffffffffffffffffffffffffffffffffffff16600d54604051808373ffffffffffffffffffffffffffffffffffffffff1673ffffffffffffffffffffffffffffffffffffffff1681526020018281526020019250505060405180910390a15b565b600073ffffffffffffffffffffffffffffffffffffffff1660018360ff166003811061060857fe5b600302018260ff166003811061061a57fe5b0160009054906101000a900473ffffffffffffffffffffffffffffffffffffffff1673ffffffffffffffffffffffffffffffffffffffff161461065c57600080fd5b42600f541161066a57600080fd5b600060029054906101000a900460ff1661068057fe5b6000809054906101000a900460ff1660ff168260ff161061069d57fe5b6000809054906101000a900460ff1660ff168160ff16106106ba57fe5b601060009054906101000a900473ffffffffffffffffffffffffffffffffffffffff1673ffffffffffffffffffffffffffffffffffffffff163373ffffffffffffffffffffffffffffffffffffffff161461071457600080fd5b3360018360ff166003811061072557fe5b600302018260ff166003811061073757fe5b0160006101000a81548173ffffffffffffffffffffffffffffffffffffffff021916908373ffffffffffffffffffffffffffffffffffffffff1602179055506000600181819054906101000a900460ff168092919060010191906101000a81548160ff021916908360ff16021790555050600e544201600f8190555060008090505b6000809054906101000a900460ff1660ff168160ff1610156108cf57601060009054906101000a900473ffffffffffffffffffffffffffffffffffffffff1673ffffffffffffffffffffffffffffffffffffffff1660018260ff166003811061081e57fe5b600302018360ff166003811061083057fe5b0160009054906101000a900473ffffffffffffffffffffffffffffffffffffffff1673ffffffffffffffffffffffffffffffffffffffff1614610872576108cf565b60016000809054906101000a900460ff160360ff168160ff1614156108c2576108bc601060009054906101000a900473ffffffffffffffffffffffffffffffffffffffff1661112a565b50610e6f565b80806001019150506107b9565b5060008090505b6000809054906101000a900460ff1660ff168160ff1610156109ec57601060009054906101000a900473ffffffffffffffffffffffffffffffffffffffff1673ffffffffffffffffffffffffffffffffffffffff1660018460ff166003811061093b57fe5b600302018260ff166003811061094d57fe5b0160009054906101000a900473ffffffffffffffffffffffffffffffffffffffff1673ffffffffffffffffffffffffffffffffffffffff161461098f576109ec565b60016000809054906101000a900460ff160360ff168160ff1614156109df576109d9601060009054906101000a900473ffffffffffffffffffffffffffffffffffffffff1661112a565b50610e6f565b80806001019150506108d6565b508060ff168260ff161415610b195760008090505b6000809054906101000a900460ff1660ff168160ff161015610b1757601060009054906101000a900473ffffffffffffffffffffffffffffffffffffffff1673ffffffffffffffffffffffffffffffffffffffff1660018260ff1660038110610a6657fe5b600302018260ff1660038110610a7857fe5b0160009054906101000a900473ffffffffffffffffffffffffffffffffffffffff1673ffffffffffffffffffffffffffffffffffffffff1614610aba57610b17565b60016000809054906101000a900460ff160360ff168160ff161415610b0a57610b04601060009054906101000a900473ffffffffffffffffffffffffffffffffffffffff1661112a565b50610e6f565b8080600101915050610a01565b505b60016000809054906101000a900460ff160360ff1681830160ff161415610c6b5760008090505b6000809054906101000a900460ff1660ff168160ff161015610c6957601060009054906101000a900473ffffffffffffffffffffffffffffffffffffffff1673ffffffffffffffffffffffffffffffffffffffff1660018260ff1660038110610ba557fe5b600302018260016000809054906101000a900460ff16030360ff1660038110610bca57fe5b0160009054906101000a900473ffffffffffffffffffffffffffffffffffffffff1673ffffffffffffffffffffffffffffffffffffffff1614610c0c57610c69565b60016000809054906101000a900460ff160360ff168160ff161415610c5c57610c56601060009054906101000a900473ffffffffffffffffffffffffffffffffffffffff1661112a565b50610e6f565b8080600101915050610b40565b505b60026000809054906101000a900460ff1660ff160a60ff16600060019054906101000a900460ff1660ff161415610ca557610ca46112cb565b5b600a60009054906101000a900473ffffffffffffffffffffffffffffffffffffffff1673ffffffffffffffffffffffffffffffffffffffff16601060009054906101000a900473ffffffffffffffffffffffffffffffffffffffff1673ffffffffffffffffffffffffffffffffffffffff161415610d8557600b60009054906101000a900473ffffffffffffffffffffffffffffffffffffffff16601060006101000a81548173ffffffffffffffffffffffffffffffffffffffff021916908373ffffffffffffffffffffffffffffffffffffffff160217905550610de9565b600a60009054906101000a900473ffffffffffffffffffffffffffffffffffffffff16601060006101000a81548173ffffffffffffffffffffffffffffffffffffffff021916908373ffffffffffffffffffffffffffffffffffffffff1602179055505b7f637351f91da430278368fb3e486c8c3da47b2e6ce4d28b2c404cb044702ca7e1601060009054906101000a900473ffffffffffffffffffffffffffffffffffffffff16604051808273ffffffffffffffffffffffffffffffffffffffff1673ffffffffffffffffffffffffffffffffffffffff16815260200191505060405180910390a15b5050565b6000809054906101000a900460ff1681565b67016345785d8a000081565b600a60009054906101000a900473ffffffffffffffffffffffffffffffffffffffff1681565b600073ffffffffffffffffffffffffffffffffffffffff16600b60009054906101000a900473ffffffffffffffffffffffffffffffffffffffff1673ffffffffffffffffffffffffffffffffffffffff1614610f0f57fe5b6001600060026101000a81548160ff02191690831515021790555067016345785d8a00003414610f3e57600080fd5b33600b60006101000a81548173ffffffffffffffffffffffffffffffffffffffff021916908373ffffffffffffffffffffffffffffffffffffffff1602179055507f31e760aa525306aba638a784082a013b6a1cc0a9a1789f3f22281c0453b10b1f600b60009054906101000a900473ffffffffffffffffffffffffffffffffffffffff16604051808273ffffffffffffffffffffffffffffffffffffffff1673ffffffffffffffffffffffffffffffffffffffff16815260200191505060405180910390a1600a60009054906101000a900473ffffffffffffffffffffffffffffffffffffffff16601060006101000a81548173ffffffffffffffffffffffffffffffffffffffff021916908373ffffffffffffffffffffffffffffffffffffffff160217905550600e544201600f819055507f637351f91da430278368fb3e486c8c3da47b2e6ce4d28b2c404cb044702ca7e1601060009054906101000a900473ffffffffffffffffffffffffffffffffffffffff16604051808273ffffffffffffffffffffffffffffffffffffffff1673ffffffffffffffffffffffffffffffffffffffff16815260200191505060405180910390a1565b42600f541061110757600080fd5b600060029054906101000a900460ff1661112057600080fd5b6111286112cb565b565b60008060026101000a81548160ff0219169083151502179055507f8245a3876d42d9b0bdb7f24184c03fc24e3d8a079f492b1ec9ceae70b366edf981604051808273ffffffffffffffffffffffffffffffffffffffff1673ffffffffffffffffffffffffffffffffffffffff16815260200191505060405180910390a16000479050600115158273ffffffffffffffffffffffffffffffffffffffff166108fc839081150290604051600060405180830381858888f1935050505015151461125b57600a60009054906101000a900473ffffffffffffffffffffffffffffffffffffffff1673ffffffffffffffffffffffffffffffffffffffff168273ffffffffffffffffffffffffffffffffffffffff16141561124e5780600c81905550611256565b80600d819055505b6112c7565b7f2a44162a2d5223e37cacacc3f626dcfee1396e0be3616534c5c7b718f786b6738282604051808373ffffffffffffffffffffffffffffffffffffffff1673ffffffffffffffffffffffffffffffffffffffff1681526020018281526020019250505060405180910390a15b5050565b60008060026101000a81548160ff0219169083151502179055507f2207d46a2ba0f2acda06e9a222b40fd004e385738b3f868e63b2c0bfe4bc094c60405160405180910390a160006002478161131d57fe5b04905060001515600a60009054906101000a900473ffffffffffffffffffffffffffffffffffffffff1673ffffffffffffffffffffffffffffffffffffffff166108fc839081150290604051600060405180830381858888f193505050501515141561138f5780600c8190555061141f565b7f2a44162a2d5223e37cacacc3f626dcfee1396e0be3616534c5c7b718f786b673600a60009054906101000a900473ffffffffffffffffffffffffffffffffffffffff16600c54604051808373ffffffffffffffffffffffffffffffffffffffff1673ffffffffffffffffffffffffffffffffffffffff1681526020018281526020019250505060405180910390a15b60001515600b60009054906101000a900473ffffffffffffffffffffffffffffffffffffffff1673ffffffffffffffffffffffffffffffffffffffff166108fc839081150290604051600060405180830381858888f193505050501515141561148e5780600d8190555061151e565b7f2a44162a2d5223e37cacacc3f626dcfee1396e0be3616534c5c7b718f786b673600b60009054906101000a900473ffffffffffffffffffffffffffffffffffffffff16600d54604051808373ffffffffffffffffffffffffffffffffffffffff1673ffffffffffffffffffffffffffffffffffffffff1681526020018281526020019250505060405180910390a15b50565b60405180606001604052806003905b61153861154e565b8152602001906001900390816115305790505090565b604051806060016040528060039060208202803883398082019150509050509056fea265627a7a723158204deb5bfa3b50d3d14b23f80bc0ffefae3aa3e14c8c9a636b83f6575cc8cbad9e64736f6c63430005100032",
  "source": "// SPDX-License-Identifier: MIT\npragma solidity >=0.4.21 <0.7.0;\n\ncontract TicTacToe {\n    uint constant public gameCost = 0.1 ether;\n\n    uint8 public boardSize = 3;\n    uint8 movesCounter;\n\n    bool gameActive;\n\n    address[3][3] board;\n\n    address payable public  player1;\n    address payable public player2;\n\n    uint balanceToWithdrawPlayer1;\n    uint balanceToWithdrawPlayer2;\n\n    uint timeToReact = 3 minutes;\n    uint gameValidUntil;\n\n    address payable activePlayer;\n\n    event PlayerJoined(address player);\n    event NextPlayer(address player);\n    event GameOverWithWin(address winner);\n    event GameOverWithDraw();\n    event PayoutSuccess(address receiver,uint amountInWei);\n\n    constructor() public payable{\n        player1 = msg.sender;\n        require(msg.value == gameCost);\n        gameValidUntil = block.timestamp + timeToReact;\n    }\n\n    function joinGame() public payable{\n        assert(player2 == address(0));\n        gameActive = true;\n\n        require(msg.value == gameCost);\n\n        player2 = msg.sender;\n\n        emit PlayerJoined(player2);\n        \n        activePlayer = player1;\n\n        gameValidUntil = block.timestamp + timeToReact;\n\n        emit NextPlayer(activePlayer);\n\n    }\n\n    function getBoard() public view returns(address[3][3] memory){\n        return board;\n    }\n\n    function setWinner(address payable player) private{\n        gameActive = false;\n        //emit an event\n        emit GameOverWithWin(player);\n        uint balanceToPayOut = address(this).balance;\n        //transfer money to the winner\n        if(player.send(balanceToPayOut) != true){\n            if(player == player1){\n                balanceToWithdrawPlayer1 =  balanceToPayOut;\n            }else{\n                balanceToWithdrawPlayer2 =  balanceToPayOut;\n            }\n        }else{\n            emit PayoutSuccess(player,balanceToPayOut);\n        }\n    }\n\n    function withDrawWin() public {\n        if(msg.sender == player1){\n            require(balanceToWithdrawPlayer1 > 0);\n            balanceToWithdrawPlayer1 = 0;\n            player1.transfer(balanceToWithdrawPlayer1);\n            emit PayoutSuccess(player1,balanceToWithdrawPlayer1);\n        }else{\n            require(balanceToWithdrawPlayer2 > 0);\n            balanceToWithdrawPlayer2 = 0;\n            player2.transfer(balanceToWithdrawPlayer2);\n            emit PayoutSuccess(player2,balanceToWithdrawPlayer2);\n        }\n    }\n\n    function emergecyCashout() public{\n        require(gameValidUntil < block.timestamp);\n        require(gameActive);\n        setDraw();\n    }\n\n    function setDraw() private {\n        gameActive = false;\n        emit GameOverWithDraw();\n\n        uint balanceToPayOut = address(this).balance/2;\n\n        if(player1.send(balanceToPayOut) == false){\n            balanceToWithdrawPlayer1 = balanceToPayOut;\n        }else{\n            emit PayoutSuccess(player1,balanceToWithdrawPlayer1);\n        }\n        if(player2.send(balanceToPayOut) == false){\n            balanceToWithdrawPlayer2 = balanceToPayOut;\n        }else{\n            emit PayoutSuccess(player2,balanceToWithdrawPlayer2);\n        }\n\n    }\n\n    function setStone(uint8 x,uint8 y) payable public {\n        require(board[x][y] == address(0));\n        require(gameValidUntil > block.timestamp);\n        assert(gameActive);\n        assert(x < boardSize);\n        assert(y < boardSize);\n        require(msg.sender == activePlayer);\n        board[x][y] = msg.sender;\n        movesCounter++;\n\n        gameValidUntil = block.timestamp + timeToReact;\n\n        for(uint8 i = 0; i < boardSize; i++){\n            if(board[i][y] != activePlayer){\n                break;\n            }\n            //win\n            if(i == boardSize - 1){\n                setWinner(activePlayer);\n                return;\n            }\n        }\n        for(uint8 i = 0; i < boardSize; i++){\n            if(board[x][i] != activePlayer){\n                break;\n            }\n            //win\n            if(i == boardSize - 1){\n                setWinner(activePlayer);\n                return;\n            }\n        }\n        //diagonale\n        if(x == y){\n            for(uint8 i = 0; i < boardSize; i++){\n                if(board[i][i] != activePlayer){\n                    break;\n                }\n                //win\n                if(i == boardSize - 1){\n                    setWinner(activePlayer);\n                    return;\n                }\n            }\n        }\n\n        //anti diagonale\n        if((x+y) == boardSize -1){\n            for(uint8 i = 0; i < boardSize; i++){\n                if(board[i][(boardSize-1)-i] != activePlayer){\n                    break;\n                }\n                //win\n                if(i == boardSize - 1){\n                    setWinner(activePlayer);\n                    return;\n                }\n            }\n        }\n\n        //draw\n        if(movesCounter == boardSize**2){\n            //draw\n            setDraw();\n        }\n\n        if(activePlayer == player1){\n            activePlayer = player2;\n        }else{\n            activePlayer = player1;\n        }\n\n        emit NextPlayer(activePlayer);\n    }\n}\n",
  "sourcePath": "/Users/yuanyang/truffle_demo/contracts/TicTacToe.sol",
  "compiler": {
    "name": "solc",
    "version": "0.5.16+commit.9c3226ce.Emscripten.clang"
  },
  "schemaVersion": "3.3.4",
  "updatedAt": "2021-04-26T08:07:09.323Z",
  "devdoc": {
    "methods": {}
  },
  "userdoc": {
    "methods": {}
  }
}